:100000000C9418040C9449040C9449040C9449046D
:100010000C9449040C9449040C9449040C9449042C
:100020000C9449040C9449040C9449040C9449041C
:100030000C9449040C9449040C9449040C9449040C
:100040000C9449040C9449040C9449040C944904FC
:100050000C9449040C9449040C9449040C94700EBB
:100060000C9449040C9468120C9434130C944904B5
:100070000C9449040C9449040C9449040C944904CC
:100080000C9449040C9449040C9449040C944904BC
:100090000C949B120C9473130C9449040C94490413
:1000A0000C9449040C9449040C9449040C9449049C
:1000B0000C9449040C9449040C9449040C9449048C
:1000C0000C9449040C9449040C9449040C94CE12E9
:1000D0000C94B2130C9449040C9401130C94F11376
:1000E0000C944904AF0FB20FA50FA90FE90FB60F7B
:1000F000BA0FC00FC40FC80FCE0FD20FD60FE90F23
:10010000DC0FE00FE40F0C9441280C9444290C946C
:10011000F3330C94382A0C94B5110C9469280C9480
:10012000A9170C94E40F0C947F100C9459280C948C
:10013000F3280C94AF280C94E90F0C94AF2E0C9478
:10014000BA0F0C94C22E0C9462290C946A280C9459
:10015000D2170C9478180C94A50F0C9439280C9491
:10016000DC0F0C94D20F0C94AF0F0C94C6320C948D
:1001700077170C943A280C940C120C94DE1F0C94F4
:10018000C8170C94B60F0C94E00F0C944D280C94E7
:10019000C5110C94AA2F0C94F82E0C94D60F0C9425
:1001A0007A320C94C40F0C94C00F0C9401120C946E
:1001B00060170C94CF090C94322F0C94B4110C944A
:1001C000CE0F0C948D170C949B2E0C94C80F0C948E
:1001D0006C2F0C94E1110C949F2D0C94902E0C9488
:1001E00090270C94D8290C94372A0C94A90F0C94BE
:1001F0006E340C94B8140C94B20F0000090A020873
:100200000B0C0D07060304010000000000000000B5
:1002100000000000000000000000000000000000DE
:1002200000000000000011100F000000000000009E
:1002300000000000000000000000000000000000BE
:1002400001021020200808102040102040800201E8
:1002500002010804020101020408102040808040CD
:1002600020100804020180040201804020100804CC
:10027000020108040201010204081020408001026A
:100280000408102040800505050507050808080832
:10029000020202020A0A080804040404010101011E
:1002A0000101010103030303030303030407070719
:1002B0000C0C0C0C0C0C0C0C0202020206060606BE
:1002C000060606060B0B0B0B0B0B0B0B000020009E
:1002D0002300260029002C002F003200000100001E
:1002E00003010601090100002200250028002B005F
:1002F0002E003100340002010000050108010B014D
:1003000000002100240027002A002D0030003300C7
:1003100001010000040107010A017C3C3E5E2B3D07
:100320003F2F5B5D3B2C2A225C0000000000003E5A
:100330005B4F5B3E3E6B4F6B3E1C3E7C3E1C183C55
:100340007E3C181C577D571C1C5E7F5E1C00183CB1
:100350001800FFE7C3E7FF0018241800FFE7DBE7FA
:10036000FF30483A060E2629792926407F050507E1
:10037000407F05253F5A3CE73C5A7F3E1C1C08083D
:100380001C1C3E7F14227F22145F5F005F5F060902
:100390007F017F006689956A606060606094A2FF5B
:1003A000A29408047E040810207E201008082A1C4D
:1003B00008081C2A08081E101010100C1E0C1E0C19
:1003C00030383E3830060E3E0E06000000000000B9
:1003D000005F00000007000700147F147F14242A28
:1003E0007F2A1223130864623649562050000807FA
:1003F0000300001C2241000041221C002A1C7F1C1B
:100400002A08083E0808008070300008080808081C
:10041000000060600020100804023E5149453E0083
:10042000427F400072494949462141494D331814E1
:10043000127F1027454545393C4A49493141211130
:1004400009073649494936464949291E0000140022
:100450000000403400000008142241141414141445
:10046000004122140802015909063E415D594E7CA3
:100470001211127C7F494949363E414141227F4158
:1004800041413E7F494949417F090909013E4141B6
:1004900051737F0808087F00417F41002040413FA1
:1004A000017F081422417F404040407F021C027FB0
:1004B0007F0408107F3E4141413E7F090909063E05
:1004C0004151215E7F0919294626494949320301D4
:1004D0007F01033F4040403F1F2040201F3F4038E6
:1004E000403F631408146303047804036159494DC1
:1004F00043007F4141410204081020004141417FF7
:10050000040201020440404040400003070800206C
:10051000545478407F28444438384444442838446C
:1005200044287F385454541800087E090218A4A4A3
:100530009C787F0804047800447D40002040403DC2
:10054000007F1028440000417F40007C047804783C
:100550007C080404783844444438FC1824241818CF
:10056000242418FC7C08040408485454542404042B
:100570003F44243C4040207C1C2040201C3C403018
:10058000403C44281028444C9090907C4464544C47
:1005900044000836410000007700000041360800A2
:1005A00002010204023C2623263C1EA1A161123A4C
:1005B0004040207A38545455592155557941225498
:1005C000547842215554784020545579400C1E529D
:1005D0007212395555555939545454593955545442
:1005E000580000457C410002457D420001457C40A9
:1005F0007D1211127DF0282528F07C5455450020ED
:1006000054547C547C0A097F4932494949323A445E
:1006100044443A324A4848303A4141217A3A4240C9
:100620002078009DA0A07D3D4242423D3D4040409B
:100630003D3C24FF2424487E4943662B2FFC2F2B6E
:10064000FF0929F620C0887E09032054547941000F
:1006500000447D413048484A32384040227A007A8E
:100660000A0A727D0D19317D2629292F282629296C
:10067000292630484D40203808080808080808088E
:10068000382F10C8ACBA2F102834FA00007B0000B5
:1006900008142A142222142A14085500550055AAB9
:1006A00055AA55AAFF55FF55FF000000FF00101086
:1006B00010FF00141414FF001010FF00FF1010F0C2
:1006C00010F0141414FC001414F700FF0000FF00D5
:1006D000FF1414F404FC141417101F10101F101F23
:1006E0001414141F00101010F0000000001F101050
:1006F00010101F10101010F010000000FF1010104C
:10070000101010101010FF10000000FF140000FF68
:1007100000FF00001F10170000FC04F41414171051
:10072000171414F404F40000FF00F7141414141444
:100730001414F700F7141414171410101F101F14BA
:100740001414F4141010F010F000001F101F00001B
:10075000001F14000000FC140000F010F01010FF47
:1007600010FF141414FF141010101F00000000F0EC
:1007700010FFFFFFFFFFF0F0F0F0F0FFFFFF0000C1
:10078000000000FFFF0F0F0F0F0F3844443844FCE8
:100790004A4A4A347E02020606027E027E026355FF
:1007A0004941633844443C04407E201E2006027EBA
:1007B000020299A5E7A5991C2A492A1C4C720172CC
:1007C0004C304A4D4D303048784830BC625A463D36
:1007D0003E494949007E0101017E2A2A2A2A2A44EB
:1007E000445F444440514A444040444A5140000020
:1007F000FF0103E080FF000008086B6B083612362B
:100800002436060F090F060000181800000010100B
:10081000003040FF0101001F01011E00191D1712C9
:10082000003C3C3C3C0000000000CF09B8146017BD
:1008300011241FBECFEFD1E2DEBFCDBF00E00CBF61
:1008400013E0A0E0B2E0E2EFF6E700E00BBF02C089
:1008500007900D92AC35B107D9F72BE1ACE5B3E0C9
:1008600001C01D92AE38B207E1F714E0C8E1D4E050
:1008700000E006C021970109802FFE010E94323B53
:10088000C531D10780E00807A9F70E940C0E0C942F
:1008900012380C9400002F923F924F925F926F9209
:1008A0007F928F929F92AF92BF92CF92DF92EF9200
:1008B000FF920F931F93CF93DF93CDB7DEB7CA5448
:1008C000D1090FB6F894DEBF0FBECDBF9CAF8BAF82
:1008D0004B0158AF4FAB39011EAF0DAF2196FFAEA4
:1008E000EEAE21972396BFAEAEAE23970DB71EB7DF
:1008F00025961FAF0EAF25978E01045E1F4FC801CE
:100900000E943118ABADBCAD4D915C9121E068E324
:1009100079E1CE0101960E94DE168B819C819F8F2A
:100920008E8F8D819E81AF81B88588A399A3AAA35C
:10093000BBA389859A85AB85BC858CA39DA3AEA3FB
:10094000BFA38DE0FE013D96DE01989601900D92C9
:100950008A95E1F78A8D9B8D9EAB8DABC8010E9475
:10096000B918F82ECE0101960E944418FF20C1F05C
:10097000F601EE0FFF1FFAAFE9AF1301412C512C26
:10098000E12CF12CAFA9B8ADCD01A0E0B0E02996E3
:100990008CAF9DAFAEAFBFAF2997702E612E29C02F
:1009A00063E172E086EF96E10E94BC10EBADFCAD16
:1009B0006081718186EF96E10E94BC1067E286EF4C
:1009C00096E10E94EB10A6C0D401ED91FC91028843
:1009D000F389E02DC40119950FB6F894BEBE0FBE81
:1009E000ADBEBFEFEB1AFB0AEFEF2E1A3E0A4E0A1E
:1009F0005E0A23960EAD1FAD2397E016F10609F4AB
:100A000082C0ADB6BEB60DB71EB729AD3AAD021B5A
:100A1000130B0FB6F8941EBF0FBE0DBF8DB79EB758
:100A2000019698AF8FABEBADFCADA281B381A20173
:100A300091010E94583B29960CAD1DAD2EAD3FADE6
:100A40002997060F171F281F391FB901A801440F46
:100A5000551F661F771F872D962D0E944F1849AD91
:100A60005AAD6FA978AD872D962D0E94451829ADF6
:100A70003AAD8217930781F064E272E086EF96E167
:100A80000E94D910872D962D0E94A7180FB6F894B2
:100A9000BEBE0FBEADBE3EC0D401ED91FC9106803E
:100AA000F781E02DC401199501E010E0960121962F
:100AB0004EAD5FAD21974E0D5F1D6DAD7EADC40196
:100AC0000E94EC320FA918AD20E030E02C153D0556
:100AD00009F47ACFF801619171918F017627672728
:100AE0007627C4012A962FAF2A972B963FAF2B97D4
:100AF0000E949D332A962FAD2A972B963FAD2B97B8
:100B00002F5F3F4FE3CFCE014C960E94A718CE0136
:100B10004C9602C0CE014C960E94441825962EADEC
:100B20003FAD25970FB6F8943EBF0FBE2DBFC65BF5
:100B3000DF4F0FB6F894DEBF0FBECDBFDF91CF9170
:100B40001F910F91FF90EF90DF90CF90BF90AF90EB
:100B50009F908F907F906F905F904F903F902F90DD
:100B600008954F925F926F927F92AF92BF92CF9211
:100B7000DF92EF92FF920F931F93CF93DF937C014D
:100B80008B016A01E9012B0177FF03C087E0480E62
:100B9000511C93E0559447949A95E1F7052C000C6D
:100BA0006608770889E0580E8DE3681E711C8881FD
:100BB0009981AA81BB81481659066A067B06B9F05D
:100BC0005E0184E0A80EB11C9501B301A201C6012B
:100BD0000E945522811107C068E372E086EF96E11A
:100BE0000E94BC10F1CF488259826A827B82C80180
:100BF00068E070E00E94DD3AFC0186E0EE0FFF1F26
:100C00008A95E1F7EC0FFD1F349680E4D70101903F
:100C10000D928A95E1F7DF91CF911F910F91FF908F
:100C2000EF90DF90CF90BF90AF907F906F905F90EC
:100C30004F900895CF92DF92EF92FF920F931F9300
:100C4000FC010081118122813381FB01C080D180B0
:100C5000E280F380FC01C082D182E282F382FB0158
:100C600000831183228333831F910F91FF90EF90B4
:100C7000DF90CF900895CF92DF92EF92FF920F9383
:100C80001F93CF93DF936C018B01EB01C150D04CCC
:100C9000CC0FDD1FCC0FDD1FC80FD91FCA01880F75
:100CA000991F880F991FBE018C0D9D1D0E941A0669
:100CB00002501109E12CF12C0E151F0534F1B80179
:100CC000660F771F660F771F6C0D7D1D2A813B8194
:100CD000FB01828193812817390718F4015011090B
:100CE000EBCFC701880F991F880F991F8C0D9D1D91
:100CF000FC01428153812417350720F0FFEFEF1AE2
:100D0000FF0ADACF0E941A06D7CFC701880F991FB2
:100D1000880F991FBE018C0D9D1D0E941A06C701E8
:100D2000DF91CF911F910F91FF90EF90DF90CF90C7
:100D30000895EF92FF920F931F93CF93DF937C015F
:100D40008B0110161106CCF4A80155954795B801F2
:100D5000C7010E943B06EC01BC01C7010E94990635
:100D6000CE0180959095080F191F2196CC0FDD1F9D
:100D7000CC0FDD1FEC0EFD1EE4CFDF91CF911F9154
:100D80000F91FF90EF9008952F923F924F925F92B4
:100D90006F927F928F929F92AF92BF92CF92DF928B
:100DA000EF92FF920F931F93CF93DF93CDB7DEB7F0
:100DB000C654D1090FB6F894DEBF0FBECDBF6C018B
:100DC0005B011A01490123961FAF0EAF2397E12C57
:100DD000F12C00E010E09401A101B701CE010196D1
:100DE0000E94B105698570E06F5F7F4F75956795CB
:100DF000072E000C880B990B0E9453390E948E39E4
:100E00002B013C0120E030E040E85FE30E945B3AC8
:100E100018162CF4C301B2010E941B3902C061E014
:100E200070E023968EAD9FAD2397681779070CF479
:100E300051C0A801440F551F440F551F4A0D5B1D9B
:100E4000FA01F182E082F60124813581808191816D
:100E5000280F391F4680578082819381480E591E82
:100E60006D817E818F81988526962FAF2697279654
:100E70003FAF279724964FAF249725965FAF2597CE
:100E80000E941C0E3C0169817A818B819C810E94A9
:100E9000460E8419950926962FAD269727963FADC5
:100EA000279724964FAD249725965FAD259797FFFA
:100EB00003C0919581959109621A730A77FE03C068
:100EC000719461947108680E791EFA0173826282CE
:100ED0000F5F1F4FFFEFEF1AFF0A8AE2E81684E068
:100EE000F80609F078CFB801C5010E949906C8013B
:100EF000CA5BDF4F0FB6F894DEBF0FBECDBFDF91E8
:100F0000CF911F910F91FF90EF90DF90CF90BF9006
:100F1000AF909F908F907F906F905F904F903F9099
:100F20002F900895EF92FF920F931F93CF93DF932B
:100F3000EC017B018A0124E130E0AC0168E271E060
:100F400084E596E10E94422BAE014750510963E2CD
:100F500071E084E596E10E94752E60E078EF84E50B
:100F600096E10E94812E62E084E596E10E947B2E4C
:100F700085E090E0BC016E197F094AE050E084E50D
:100F800096E1DF91CF911F910F91FF90EF900C941C
:100F90009D114F925F926F927F928F929F92AF922C
:100FA000BF92CF92DF92EF92FF920F931F93CF9356
:100FB000DF9300D000D0CDB7DEB780E496E10E9489
:100FC000DD3429833A834B835C836D837E838D81FB
:100FD0009E810A978F3D934008F0C6C069817A814F
:100FE000072E000C880B990B1F921F921F922FEE59
:100FF0002F93A12CB12C650118E9E12E13E0F12EFD
:1010000000E010E026E930E040E050E00E948A1560
:101010004B016B817C81072E000C880B990B1F9272
:101020001F921F921F923FE3A32EBB24B394C12CA7
:10103000D12C1CEAE12E13E0F12E00E010E028E7AD
:1010400030E040E050E00E948A152B010FB6F89482
:10105000DEBF0FBECDBF54E2E52E56E1F52E00E017
:1010600010E0F7012081318182819381A8014F5FD7
:101070005F4F5A010115110529F458E785169104AF
:10108000B4F007C00430110521F4E9E78E1691048D
:1010900074F4A801415051094330510540F08501D5
:1010A000F4E0EF0EF11C05301105D9F65DC02419EE
:1010B000350988199909229FA001239F500D500DD1
:1010C0001124889F9001899F300D300D1124CA0191
:1010D000820F931F8139914014F7809106029091FD
:1010E000070208171907D9F240E1441641E05406F7
:1010F000B4F24AE050E0B80186EF96E10E949D11FB
:1011000010930702009306026501612C712C84E0A4
:10111000680E711C95E0C916D10474F440E050E0EB
:10112000B601F701E60DF71D828193810E949207B7
:101130005FEFC51AD50AEBCF84E2682E86E1782EE0
:10114000C12CD12C4FEF5FEFB601F3018281938167
:101150000E949207FFEFCF1ADF0A24E0620E711C93
:101160000C151D057CF79BCF26960FB6F894DEBFB5
:101170000FBECDBFDF91CF911F910F91FF90EF90E8
:10118000DF90CF90BF90AF909F908F907F906F90A7
:101190005F904F9008950F931F93CF93DF93CDB738
:1011A000DEB7C054D1090FB6F894DEBF0FBECDBF75
:1011B0008C0161E084E596E10E947B2EF801EE0F40
:1011C000FF1FEE0FFF1FE459FA4F608171812CE57C
:1011D00033E040E655E0CE0101960E94B1058091D2
:1011E0003E1690913F160817190729F040E050E08D
:1011F0006FEF7FEF04C04FEF5FEF60E070E084E5DA
:1012000096E10E94872E20913A1630913B1662EEAD
:101210006203A001639F500D1124400F511F83E012
:10122000440F551F8A95E1F760E070E084E596E190
:101230000E94752EBE01665F7F4F84E596E10E9495
:10124000BC104AE050E0B80186EF96E10E949D1183
:10125000C05CDF4F0FB6F894DEBF0FBECDBFDF918D
:10126000CF911F910F910895AF92BF92CF92DF92CD
:10127000EF92FF920F931F9380911C1690911D1671
:101280008B3021E0920759F480912016909121161D
:10129000803F26E09207C9F0805F9E4F0AC0049706
:1012A000A1F48091201690912116009771F0805141
:1012B0009140909321168093201688E890E09093B7
:1012C0001D1680931C1681E001C080E020911E163F
:1012D00030911F162B3E310559F420912216309182
:1012E0002316203197E03907D1F020513F4F0CC031
:1012F00024303105A1F420912216309123162115B6
:10130000310569F0205F31093093231620932216AE
:1013100088E790E090931F1680931E1602C08823E2
:10132000A9F14091201650912116413F26E0520725
:1013300014F040EF56E057FF02C040E050E05093F9
:101340002116409320162091221630912316213128
:1013500087E0380714F020E137E037FF02C020E0D3
:1013600030E0309323162093221680EFA82EB12C64
:1013700090E1C92EDD24D394E12CF12C00E010E0A3
:1013800064E576E180E092E00E944B041F910F91AA
:10139000FF90EF90DF90CF90BF90AF900895EF92C5
:1013A000FF920F932FEF49E06AE084E596E10E94F7
:1013B000C32F8CE2E82EFF24F39405E029E348E3F1
:1013C00064E080E496E10E943736E0E6F5E01582BD
:1013D0001682118613860F91FF90EF900895AF92B9
:1013E000BF92CF92DF92EF92FF920F931F93E4E1AF
:1013F000F6E12281338140815181790184E0E81A4C
:10140000F1088A010450110986819781280F391F3C
:101410002450310984819581480F591F4450510946
:1014200089E0A82EB12C99E0C92ED12C64E576E193
:1014300080E092E00E944B04ECE1F6E142815381AE
:10144000445051096081718164507109E12C28EF89
:10145000F22E09E010E029E030E084E596E10E94F8
:101460006C2F1F910F91FF90EF90DF90CF90BF9066
:10147000AF900895AF92BF92CF92DF92EF92FF921A
:101480000F931F93CF93DF93E12CF12C00EF10E02B
:1014900020E330E040E050E060E171E084E596E177
:1014A0000E946C2F24E2E22E26E1F22E04E110E0ED
:1014B000C0E0D0E038E2C32EDD24D394F701D1821E
:1014C000C082138302834FEF5FEFBE01C8010E9409
:1014D00092072196F4E0EF0EF11C005D1F4FC5301E
:1014E000D10561F7209122163091231640912016E4
:1014F0005091211680EFA82EB12C90E1C92EDD2449
:10150000D394E12CF12C00E010E064E576E180E07A
:1015100092E00E944B040E94EF0910923D16109237
:101520003C16DF91CF911F910F91FF90EF90DF90CC
:10153000CF90BF90AF9008950E94110F62E082E0BB
:101540000E94EA0F40E855E260E070E086EF96E125
:101550000E94301440E050E0BA0184E596E10E9418
:10156000843064E572E086EF96E10E94BC1066E08C
:1015700088E399E10E94CB1581110DC06CE672E001
:1015800086EF96E10E94D91064E772E086EF96E15B
:101590000E94D910FFCF63E972E086EF96E10E94C6
:1015A000BC1046E061E080E695E00E94C320811116
:1015B00007C06CE672E086EF96E10E94D910FFCF7B
:1015C00063EC72E086EF96E10E94D9106FEF84E53C
:1015D00096E10E947A3260E084E596E10E948D2EC9
:1015E00088E890E090931D1680931C1688E790E0A1
:1015F00090931F1680931E1680E393E0909321161C
:101600008093201680EC93E090932316809322160B
:1016100010925C0310925D0310925E0310925F03C0
:101620000C943A0A0F931F93CF93DF9340E050E05E
:1016300060E070E084E596E10E94752E60E070E065
:1016400084E596E10E944429809106029091070268
:1016500005E010E0081B190B2CE533E040E655E0EF
:101660006CE675E08CE196E10E94C4069093391611
:101670008093381610923F1610923E16C0E0D0E0CC
:10168000CE010E94CB082196CE31D105C9F781E069
:1016900090E090933D1680933C16DF91CF911F917F
:1016A0000F910895EF92FF920F931F93CF93DF93C3
:1016B00087E30E94730FEC0186E30E94730F7C01A5
:1016C00082E00E9456108C01C13082E0D8072CF0D5
:1016D000C13492E0D90744F42CC080E092E08C1B26
:1016E0009D0B813491052CF1D250D7FDEF9626E069
:1016F000D595C7952A95E1F720911E1630911F16B2
:10170000C20FD31FC430D10534F0CC3ED1052CF02C
:10171000CBEED0E002C0C4E0D0E0D0931F16C0935F
:101720001E1681E02091161630911716C217D307A6
:1017300009F480E091E0E91692E0F90634F091E4D2
:10174000E91692E0F90644F434C020E032E02E19A4
:101750003F09213431056CF120E032E02E193F09B8
:1017600037FF02C0215C3F4F96E0359527959A954B
:10177000E1F740911C1650911D16240F351F24309F
:1017800031053CF02C3091E039072CF02BE031E0B2
:1017900002C024E030E030931D1620931C1691E027
:1017A00040911416509115162417350709F490E04E
:1017B000892B8823A1F00E943409809120169091F2
:1017C00021169093191680931816809122169091E5
:1017D000231690931B1680931A160E94EF0988E037
:1017E000ECE1F6E1A4E1B6E101900D928A95E1F712
:1017F000012B11F50E94120B81E090E090933D16B1
:1018000080933C164AE050E061E070E086EF96E19C
:101810000E949D1167EC72E086EF96E10E94D9105C
:1018200082E00E945610892B39F46AE070E080E073
:1018300090E00E94EB0EF4CFDF91CF911F910F91BA
:10184000FF90EF9008951F93CF93DF9380913A1606
:1018500090913B16019690933B1680933A1640E088
:1018600050E060E070E084E596E10E94752E60E053
:1018700070E084E596E10E94442980913A169091A7
:101880003B162EE1289FE001299FD00D11241EE177
:1018900080913A1690913B160196189F9001199FDE
:1018A000300D1124C217D30764F48091381690913B
:1018B0003916C817D9071CF4CE010E94CB0821960F
:1018C000E7CFDF91CF911F9108951F93CF93DF93BF
:1018D00080913A1690913B16019790933B16809316
:1018E0003A1640E050E060E070E084E596E10E9446
:1018F000752E60E070E084E596E10E9444298091B5
:101900003A1690913B162EE1289FE001299FD00DB9
:1019100011241EE180913A1690913B160196189F72
:101920009001199F300D1124C217D30764F48091E0
:10193000381690913916C817D9071CF4CE010E94A9
:10194000CB082196E7CFDF91CF911F9108950F9398
:101950001F93CF93DF93CDB7DEB7C054D1090FB635
:10196000F894DEBF0FBECDBF00913E1610913F161A
:1019700087E30E94730F20913E1630913F16813409
:1019800042E094071CF02F5F3F4F05C0803C914020
:1019900034F42150310930933F1620933E16809144
:1019A0003E1690913F1640913A1650913B16BA015F
:1019B0006F5F7F4FEEE1E69F9001E79F300D1124AE
:1019C0008217930751F46091381670913916861773
:1019D00097071CF40E94230C0CC02F513109821769
:1019E000930739F497FD05C01416150614F40E94E8
:1019F000650C20913E1630913F1637FD0BC080914B
:101A00003816909139162817390734F09C01215067
:101A1000310902C020E030E030933F1620933E169B
:101A20000217130779F0C8010E94CB0880913E1677
:101A300090913F160E94CB0862E370E080E090E056
:101A40000E94EB0E82E00E9456108C01892B09F057
:101A5000D7C0E0913E16F0913F16EE0FFF1FEE0F3C
:101A6000FF1FE459FA4F608171812CE533E040E6B5
:101A700055E0CE0101960E94B1056D817E818F8176
:101A800098850E941C0E8838910594F06D817E81A6
:101A90008F8198850E941C0E8937974064F46D8170
:101AA0007E818F8198850E941C0E8858910905C0FF
:101AB00080E090E002C080EF96E090932116809342
:101AC000201669817A818B819C810E94460E88371D
:101AD0009105ACF069817A818B819C810E94460ED0
:101AE0008938974054F469817A818B819C810E9466
:101AF000460E8C010857110902C000E117E010934F
:101B00002316009322166D817E818F8198850E9415
:101B10001C0E2091201630912116821B930B0497E6
:101B2000E4F06D817E818F8198850E941C0E20914A
:101B3000201630912116821B930B8C30914084F437
:101B40006D817E818F8198850E941C0E20912016C8
:101B500030912116821B930B05C084E090E002C0F7
:101B60008BE091E090931D1680931C1669817A8119
:101B70008B819C810E94460E209122163091231663
:101B8000821B930B0497E4F069817A818B819C819D
:101B90000E94460E2091221630912316821B930B31
:101BA0008C3E910584F469817A818B819C810E94AD
:101BB000460E2091221630912316821B930B05C0EE
:101BC00084E090E002C08BEE90E090931F1680932B
:101BD0001E1688E0ECE1F6E1A4E1B6E101900D9279
:101BE0008A95E1F70E943A0A82E00E945610892BFA
:101BF00039F46AE070E080E090E00E94EB0EF4CFF0
:101C0000C05CDF4F0FB6F894DEBF0FBECDBFDF91D3
:101C1000CF911F910F9108950E949C0A80913C16CC
:101C200090913D16892B29F40E94520B0E94C907FE
:101C3000F5CF0E94A70CF2CFAF92BF92CF92DF9266
:101C4000EF92FF920F931F931F921F9228E02F9302
:101C50001F92A12CB12C650118E8E12E10E1F12EA4
:101C600003E51FEF24E337E842E55FEF0E948A15A2
:101C70000F900F900F900F90CB011F910F91FF903D
:101C8000EF90DF90CF90BF90AF900895AF92BF924A
:101C9000CF92DF92EF92FF920F931F931F921F92AA
:101CA00028E02F931F92A12CB12C650119E1E12EA0
:101CB0001FE7F12E01E510E022EC30ED41E550E0A8
:101CC0000E948A150F900F900F900F90CB011F91DB
:101CD0000F91FF90EF90DF90CF90BF90AF9008955D
:101CE0001F920F920FB60F9211242F933F938F9351
:101CF0009F93AF93BF938091881690918916A0917E
:101D00008A16B0918B163091871623E0230F2D375A
:101D100020F40196A11DB11D05C026E8230F0296EF
:101D2000A11DB11D20938716809388169093891664
:101D3000A0938A16B0938B1680918C1690918D1675
:101D4000A0918E16B0918F160196A11DB11D8093A2
:101D50008C1690938D16A0938E16B0938F16BF910C
:101D6000AF919F918F913F912F910F900FBE0F9048
:101D70001F9018952FB7F894609188167091891666
:101D800080918A1690918B162FBF08953FB7F894D3
:101D900080918C1690918D16A0918E16B0918F1611
:101DA00026B5A89B05C02F3F19F00196A11DB11DB6
:101DB0003FBFBA2FA92F982F8827820F911DA11DF1
:101DC000B11DBC01CD0142E0660F771F881F991F2E
:101DD0004A95D1F70895CF92DF92EF92FF92CF9379
:101DE000DF936B017C010E94C60EEB01C114D1048C
:101DF000E104F10479F00E94C60E6C1B7D0B683E75
:101E00007340A0F381E0C81AD108E108F108C85175
:101E1000DC4FECCFDF91CF91FF90EF90DF90CF9030
:101E20000895789484B5826084BD84B5816084BD52
:101E300085B5826085BD85B5816085BDEEE6F0E043
:101E4000808181608083E1E8F0E01082808182609F
:101E50008083808181608083E0E8F0E08081816020
:101E60008083E1EBF0E0808184608083E0EBF0E050
:101E7000808181608083E1E9F0E0808182608083FD
:101E8000808181608083E0E9F0E0808181608083EF
:101E9000E1EAF0E0808182608083808181608083DC
:101EA000E0EAF0E0808181608083E1E2F1E080811E
:101EB00082608083808181608083E0E2F1E08081C4
:101EC00081608083EAE7F0E08081846080838081A4
:101ED000826080838081816080838081806880834C
:101EE0001092C1000895863308F0865390917B00CC
:101EF000282F2870977F922B90937B0087702091DA
:101F0000080290E4299F90011124822B80937C0089
:101F100080917A00806480937A0080917A0086FDB7
:101F2000FCCF809178002091790090E0922B089569
:101F300090E0FC013197E131F10508F04AC08827B3
:101F4000EE58FF4F8F4F0C94323B809180008F777B
:101F500003C0809180008F7D80938000089584B5B8
:101F60008F7702C084B58F7D84BD08958091B000C5
:101F70008F7703C08091B0008F7D8093B00008956B
:101F8000809190008F7707C0809190008F7D03C073
:101F900080919000877F8093900008958091A000A9
:101FA0008F7707C08091A0008F7D03C08091A00033
:101FB000877F8093A0000895809120018F7707C0CC
:101FC000809120018F7D03C080912001877F8093C5
:101FD00020010895CF93DF9390E0FC01E05CFD4F7A
:101FE0002491FC01EA57FD4F8491882361F190E030
:101FF000880F991FFC01E050FD4FC591D491FC0161
:10200000EA51FD4FA591B491611109C09FB7F894B1
:102010008881209582238883EC912E230BC0623027
:1020200061F49FB7F8943881822F80958323888349
:10203000EC912E2B2C939FBF06C08FB7F894E881AC
:102040002E2B28838FBFDF91CF9108951F93CF93BD
:10205000DF93282F30E0F901E650FE4F8491F9011B
:10206000E05CFD4FD491F901EA57FD4FC491CC23B8
:10207000C9F0162F81110E94980FEC2FF0E0EE0F9F
:10208000FF1FEA51FD4FA591B4918FB7F89411113C
:1020900005C09C91ED2FE095E92302C0EC91ED2B5A
:1020A000EC938FBFDF91CF911F910895CF93DF9372
:1020B000282F30E0F901E650FE4F8491F901E05CF1
:1020C000FD4FD491F901EA57FD4FC491CC2391F013
:1020D00081110E94980FEC2FF0E0EE0FFF1FE453E8
:1020E000FD4FA591B491EC91ED2381E090E021F4B6
:1020F00080E002C080E090E0DF91CF910895CF9220
:10210000DF92EF92FF920F931F93CF93DF936C01B7
:10211000EB017B01E40EF51E00E010E0CE15DF05BB
:1021200061F06991D601ED91FC910190F081E02D73
:10213000C6011995080F191FF1CFC801DF91CF9182
:102140001F910F91FF90EF90DF90CF900895611550
:10215000710579F0FB0101900020E9F73197AF019B
:10216000461B570BDC01ED91FC910280F381E02DC1
:10217000199480E090E008950C94A710DC01ED9193
:10218000FC910190F081E02D19940F931F93CF9350
:10219000DF93EC016DE00E94BE108C016AE0CE017D
:1021A0000E94BE10800F911FDF91CF911F910F9160
:1021B00008950F931F93CF93DF93EC010E94A71014
:1021C0008C01CE010E94C510800F911FDF91CF912D
:1021D0001F910F9108950F931F93CF93DF93EC01FD
:1021E0000E94BE108C01CE010E94C510800F911F6D
:1021F000DF91CF911F910F9108958F929F92AF928F
:10220000BF92CF92DF92EF92FF920F931F93CF93E3
:10221000DF93CDB7DEB7A1970FB6F894DEBF0FBE40
:10222000CDBF6C01142FE52FCB01022F19A2223054
:1022300008F40AE07E0121E2E20EF11C802E912CCE
:10224000A12CB12C612F7E2FA50194010E94F13A9F
:10225000029F1019112481E0E81AF1081A3014F4D1
:10226000105D01C0195CF7011083122FE32FCA0122
:10227000232B242B252B31F7B701C6010E94A71071
:10228000A1960FB6F894DEBF0FBECDBFDF91CF9100
:102290001F910F91FF90EF90DF90CF90BF90AF9084
:1022A0009F908F900895CF92DF92EF92FF920F93BD
:1022B0001F93CF93DF93EC016A017B012115310558
:1022C00079F4E881F9810190F081E02D642FDF91AC
:1022D000CF911F910F91FF90EF90DF90CF901994C5
:1022E0002A303105E9F477FF1AC06DE20E94BE1072
:1022F0008C0144275527BA014C195D096E097F09E5
:102300002AE0CE010E94FD10800F911FDF91CF9136
:102310001F910F91FF90EF90DF90CF9008952AE0EA
:10232000B701A601CE01DF91CF911F910F91FF90D0
:10233000EF90DF90CF900C94FD100F931F93CF93ED
:10234000DF93EC019A01AB01770F660B770B0E94CC
:1023500053118C01CE010E94C510800F911FDF9197
:10236000CF911F910F9108950895FC012485358523
:10237000F901E05CFF4F80819181329620813181AB
:10238000821B930B8F7399270895DC011C96ED91A6
:10239000FC911D97DF01A05CBF4F2D913C911197DF
:1023A00012968D919C9111972817390739F08D91CC
:1023B0009C91E80FF91F808190E008958FEF9FEFC7
:1023C0000895FC01A485B585FD01E05CFF4F2081E7
:1023D00031813296808191812817390779F0808187
:1023E0009181A80FB91F8C91208131812F5F3F4FC0
:1023F0002F7333273183208390E008958FEF9FEF71
:102400000895FC0181A1882329F0A489B5898C91C4
:1024100086FFFBCF11A208950F931F93CF93DF93F5
:10242000FC01A685B7858D01005C1F4FE8018881FE
:10243000998101968F739927AD014E5B5F4FEA0139
:102440002881398182179307D1F3E80128813981E6
:10245000A20FB31F6C93A685B785A05CBF4F1196E2
:102460009C938E93A689B7892C9181E090E0078C8C
:1024700002C0880F991F0A94E2F7822B8C9381E0A7
:1024800081A30488F589E02D80818064808381E0C8
:1024900090E0DF91CF911F910F910895FB01E05CD7
:1024A000FF4F208131812F5F3F4F2F733327DB0197
:1024B000AE5BBF4F4D915C912417350741F04081D1
:1024C0005181DB01A40FB51F8C93318320830895C4
:1024D0001F920F920FB60F9211240BB60F922F93EB
:1024E0003F934F935F936F937F938F939F93AF939C
:1024F000BF93EF93FF938091C00082FD07C080914E
:10250000C60064EF78E10E944E1202C08091C600BE
:10251000FF91EF91BF91AF919F918F917F916F91BB
:102520005F914F913F912F910F900BBE0F900FBE77
:102530000F901F9018951F920F920FB60F921124B3
:102540000BB60F922F933F934F935F936F937F93AD
:102550008F939F93AF93BF93EF93FF938091C800A6
:1025600082FD07C08091CE006CE678E10E944E1299
:1025700002C08091CE00FF91EF91BF91AF919F91EA
:102580008F917F916F915F914F913F912F910F901C
:102590000BBE0F900FBE0F901F9018951F920F92B9
:1025A0000FB60F9211240BB60F922F933F934F93B8
:1025B0005F936F937F938F939F93AF93BF93EF93AB
:1025C000FF938091D00082FD07C08091D60064EE19
:1025D00077E10E944E1202C08091D600FF91EF91E8
:1025E000BF91AF919F918F917F916F915F914F912B
:1025F0003F912F910F900BBE0F900FBE0F901F9029
:1026000018951F920F920FB60F9211240BB60F92CE
:102610002F933F934F935F936F937F938F939F93EA
:10262000AF93BF93EF93FF938091300182FD07C07A
:10263000809136016CE577E10E944E1202C08091D4
:102640003601FF91EF91BF91AF919F918F917F9153
:102650006F915F914F913F912F910F900BBE0F9013
:102660000FBE0F901F9018951F920F920FB60F92EA
:1026700011240BB60F922F933F938F939F93EF9359
:10268000FF932091F0183091F1188091F2189091F9
:10269000F3182817390731F48091C1008F7D80939A
:1026A000C10014C0E091F218F091F318E055F74E14
:1026B00020818091F2189091F31801968F739927D9
:1026C0009093F3188093F2182093C600FF91EF9136
:1026D0009F918F913F912F910F900BBE0F900FBE46
:1026E0000F901F9018951F920F920FB60F92112402
:1026F0000BB60F922F933F938F939F93EF93FF937C
:10270000209168183091691880916A1890916B181F
:102710002817390731F48091C9008F7D8093C90053
:1027200014C0E0916A18F0916B18E85DF74E2081B3
:1027300080916A1890916B1801968F7399279093E6
:102740006B1880936A182093CE00FF91EF919F91B0
:102750008F913F912F910F900BBE0F900FBE0F9056
:102760001F9018951F920F920FB60F9211240BB65F
:102770000F922F933F938F939F93EF93FF9320910B
:10278000E0173091E1178091E2179091E317281735
:10279000390731F48091D1008F7D8093D10014C02E
:1027A000E091E217F091E317E056F84E2081809116
:1027B000E2179091E31701968F7399279093E3178F
:1027C0008093E2172093D600FF91EF919F918F9114
:1027D0003F912F910F900BBE0F900FBE0F901F9047
:1027E00018951F920F920FB60F9211240BB60F92ED
:1027F0002F933F938F939F93EF93FF9320915817BD
:102800003091591780915A1790915B172817390703
:1028100031F4809131018F7D8093310114C0E091BA
:102820005A17F0915B17E85EF84E208180915A1795
:1028300090915B1701968F73992790935B17809304
:102840005A1720933601FF91EF919F918F913F91FD
:102850002F910F900BBE0F900FBE0F901F901895E9
:10286000CF92DF92EF92FF920F931F93CF93DF935C
:10287000EC016A017B014115514E6105710509F1B9
:10288000EC89FD8981E090E008A002C0880F991FC3
:102890000A94E2F7808360E079E08DE390E0A7019D
:1028A00096010E94F13A89019A010150110921090A
:1028B000310936952795179507959801011510410F
:1028C000A8F0EC89FD89108260E874E88EE190E060
:1028D000A70196010E94F13ADA01C9010197A10905
:1028E000B109B695A795979587959C01E889F989CF
:1028F0003083EA89FB89208319A2EE89FF89408110
:1029000081E090E09C010C8C02C0220F331F0A94DE
:10291000E2F7242B2083EE89FF8940819C010D8CF6
:1029200002C0220F331F0A94E2F7242B2083EE8982
:10293000FF8940819C010E8C02C0220F331F0A9434
:10294000E2F7242B2083EE89FF8920810F8C02C0BF
:10295000880F991F0A94E2F7809582238083DF9184
:10296000CF911F910F91FF90EF90DF90CF9008953E
:10297000CF92DF92EF92FF92E6EFF6E1138212829E
:1029800088EEC82E83E0D82EE12CF12CC482D582AB
:10299000E682F78265EE72E07183608384EF98E1EE
:1029A0009587848780EB98E19787868785EC90E010
:1029B000918B808B84EC90E0938B828B80EC90E009
:1029C000958B848B81EC90E0978B868B82EC90E0EA
:1029D000918F808F86EC90E0938F828F44E0448FBC
:1029E00033E0358F27E0268F95E0978F81E080A335
:1029F000E4EDF6E113821282C482D582E682F78288
:102A000071836083ACE6B8E1B587A487A8E2B8E13A
:102A1000B787A687ADECB0E0B18BA08BACECB0E093
:102A2000B38BA28BA8ECB0E0B58BA48BA9ECB0E083
:102A3000B78BA68BAAECB0E0B18FA08FAEECB0E064
:102A4000B38FA28F448F358F268F978F80A3E2EBB1
:102A5000F6E113821282C482D582E682F782718304
:102A60006083A4EEB7E1B587A487A0EAB7E1B78792
:102A7000A687A5EDB0E0B18BA08BA4EDB0E0B38B41
:102A8000A28BA0EDB0E0B58BA48BA1EDB0E0B78B2D
:102A9000A68BA2EDB0E0B18FA08FA6EDB0E0B38F12
:102AA000A28F448F358F268F978F80A3E0E9F6E1C0
:102AB00013821282C482D582E682F7827183608398
:102AC0006CE577E17587648768E177E177876687EA
:102AD00065E371E0718B608B64E371E0738B628BF3
:102AE00060E371E0758B648B61E371E0778B668BDB
:102AF00062E371E0718F608F66E371E0738F628FC4
:102B0000448F358F268F978F80A3FF90EF90DF90B3
:102B1000CF9008954F925F926F927F92AF92BF9243
:102B2000CF92DF92EF92FF920F931F93CF93DF9399
:102B3000CDB7DEB729013A019B01AC012419350953
:102B4000460957098A899B89AC89BD89BC01CD0199
:102B50006A197B098C099D090E94CD3AA801970149
:102B600024193509460957090E94133BCA01B901C6
:102B70006A0D7B1D8C1D9D1DDF91CF911F910F91C3
:102B8000FF90EF90DF90CF90BF90AF907F906F90CD
:102B90005F904F9008950F931F93CF93DF93EC01B5
:102BA000462F61E00E94C320882391F08E01045FCC
:102BB0001F4F41E0BE01C8010E947926882351F0D1
:102BC000B801CE018A960E949F1991E081110AC036
:102BD00090E008C040E0BE01C8010E947926882329
:102BE000B9F3EECF892FDF91CF911F910F91089507
:102BF000FC01DB0112968D919C9113979383828344
:102C000087E093E09183808314968C91149784835A
:102C100015968C911597858316964D915D916D91C2
:102C20007C91199746835783608771871A964D91D7
:102C30005D916D917C911D9742875387648775875D
:102C40001E964D915D916D917C9151974687578766
:102C5000608B718B52968C915297828B53964D91CB
:102C60005D916D917C915697438B548B658B768BE0
:102C700057964D915D916D917C915A97478B508FEE
:102C8000618F728F5B968D919C915C97948F838FEF
:102C900008954F925F926F927F928F929F92AF9220
:102CA000BF92CF92DF92EF92FF920F931F93CF9339
:102CB000DF93CDB7DEB7C754D1090FB6F894DEBFA6
:102CC0000FBECDBF6C015A014901665D7F4F7E0189
:102CD0008EE1E80EF11CC7010E94F8151C821B82D0
:102CE00087E093E09A8389831E828501FE013196F5
:102CF0003F0127016FE270E0C8010E94223800976F
:102D0000D9F1F80120812F3219F40F5F1F4FF2CF54
:102D1000801B8D3008F08CE0E82EF12CA701B80163
:102D2000CE01CB960E942D38EBE3F0E0EC0FFD1FB7
:102D3000EE0DFF1D1082C3010E941B1C21E0AE019D
:102D4000455C5F4FB201C3010E944F1D811109C054
:102D5000F6011382128287E093E0918380831582CB
:102D600014C00E0D1F1DC2010E941B1C942D852D29
:102D70002301692E782EBECF0A191B09F401118395
:102D80000083B201C6010E94F815C601C95BDF4F7E
:102D90000FB6F894DEBF0FBECDBFDF91CF911F916C
:102DA0000F91FF90EF90DF90CF90BF90AF909F90EA
:102DB0008F907F906F905F904F900895CF92DF92A9
:102DC000FF920F931F93CF93DF93CDB7DEB7C95513
:102DD000D1090FB6F894DEBF0FBECDBF6C018A01DA
:102DE000F22E9E01285A3F4FCE01CB960E944916E3
:102DF0006A968EAD9FAD6A97080F191FF801808102
:102E000081110AC0BE01655C7F4FCE0101960E9410
:102E1000F81541EF52E03EC019A218A287E093E0F6
:102E20009F8F8E8F1BA221968FAD2197811104C099
:102E3000C6010E94311834C082502F2DA801823063
:102E400048F462E679E1CE014E960E944F1D811151
:102E50000EC0EECFBE01655C7F4FCE014E960E9444
:102E60004F1D882329F3CE01CB960E941B1C9F2D5A
:102E7000967041F049A95AA96BA97CA9CE014E963A
:102E80000E943E1BBE01625E7F4FCE0101960E94F2
:102E9000F815A801BE016F5F7F4FC6010E94FC17A5
:102EA000C601C75ADF4F0FB6F894DEBF0FBECDBFC5
:102EB000DF91CF911F910F91FF90DF90CF900895F8
:102EC000E8E3F9E1158216821186138682E090E02C
:102ED000A0E0B0E084879587A687B78713A215A6E0
:102EE00014A687E093E093A782A717A60895CF932F
:102EF000DF931F92CDB7DEB76983DC01ED91FC91C2
:102F00000280F381E02D41E050E0BE016F5F7F4F12
:102F100019950F90DF91CF910895CF93DF93EC0136
:102F2000898D9A8D009739F481E090E09B838A83A4
:102F300080E090E00BC0FC01138212820E943D1ED3
:102F4000E98DFA8D22813381232B71F7DF91CF91A7
:102F50000895FC01818D928D009711F00C94D41B83
:102F60000895CF93DF931F92CDB7DEB741E050E0D5
:102F7000BE016F5F7F4F0E94F019019719F489819C
:102F800090E002C08FEF9FEF0F90DF91CF910895F7
:102F9000FC01818D928D009711F00C94B1178FEF89
:102FA0009FEF08950F931F93CF93DF93FC01818DC3
:102FB000928D0097B9F0EF010E94B1178C010F3F7D
:102FC0008FEF180791F0898D9A8DFC01428553850A
:102FD0006485758541505109610971090E943E1B44
:102FE000C80105C080E090E002C08FEF9FEFDF9145
:102FF000CF911F910F910895EF92FF920F931F931E
:10300000CF93DF93EC017B018A011B821A8288EE49
:1030100093E0A0E0B0E08C839D83AE83BF8387EF15
:1030200092E0998388838DE190E00E94B2369A8F76
:10303000898F009779F02DE1F701DC0101900D9265
:103040002A95E1F74CE050E0B801CE010C960E94C1
:103050002D38188EDF91CF911F910F91FF90EF9037
:103060000895FC011382128288EE93E0A0E0B0E0A4
:1030700084839583A683B78387EF92E091838083CF
:10308000128E118E148608950895FC01818D928D03
:10309000009711F00C94F01980E090E00895FC0185
:1030A000818D928D009711F00C943E1B80E0089565
:1030B000DC015996ED91FC915A97309729F0628581
:1030C00073858485958508956FEF7FEFCB01089513
:1030D000DC015996ED91FC915A97309729F063895C
:1030E000748985899689089560E070E0CB01089520
:1030F000CF92DF92EF92FF92CF93DF93FC01218D6D
:10310000328D232BD9F0EC010E9468186B017C01F1
:10311000CE010E945818A7019601261B370B480BB9
:10312000590BDA01C901811530E89307A105B105F2
:1031300038F08FEF9FE7A0E0B0E002C080E090E0C1
:10314000DF91CF91FF90EF90DF90CF900895CF93D4
:10315000DF93EC01898D9A8D009741F00E941B1C32
:10316000898D9A8D0E9447371A8E198EDF91CF91E3
:103170000895DC015996ED91FC915A97309721F012
:1031800081E09581911101C080E00895CF93DF9394
:10319000EC019C012A5F3F4F41E050E060E070E0AD
:1031A0008B8D9C8D0E940E258823A1F08F89988D90
:1031B000A98DBA8D892B8A2B8B2B59F48E819F81F7
:1031C000A885B9858F8B988FA98FBA8F8C818068DD
:1031D0008C8381E0DF91CF910895CF92DF92EF92BF
:1031E000FF921F93CF93DF93EC010E94C6188111C9
:1031F00002C080E04AC0EB8DFC8DCE80DF80E88489
:10320000F98482E0C81AD108E108F108058404C0F5
:10321000CC0CDD1CEE1CFF1C0A94D2F7868597852A
:10322000A089B189C80ED91EEA1EFB1E148181E057
:10323000C81AD108E108F108112361F0C701B601ED
:10324000610F711D811D911D0E945D23882389F2EC
:103250001150F2CFEB8DFC8D80E092E0A0E0B0E069
:10326000058404C0880F991FAA1FBB1F0A94D2F7B8
:103270004B895C896D897E89840F951FA61FB71FB6
:103280008B8B9C8BAD8BBE8B81E0DF91CF911F919F
:10329000FF90EF90DF90CF900895CF93DF93EC01F4
:1032A000462F6E857F85888999890E9422238823ED
:1032B00041F08A8920E2829FC00111248657964EF0
:1032C00002C080E090E0DF91CF910895FB019B0167
:1032D000255F3F4F40E24193E217F307E1F7DC013E
:1032E00090E027E08D91882319F18E3219F0EAE100
:1032F000F3E008C02A3009F198E02AE0F3CF3196D4
:103300003817D9F034913111FACF2917B0F03FEDC9
:10331000380F3E3590F431E0390FFB01E90FF11D14
:103320009FE9980F9A3108F480528083932FDACF67
:1033300081E0FB019081903209F480E008950F93C1
:103340001F93CF93DF93FC012581222311F080E0AE
:1033500042C08B01EC01FB0187898031B1F482E02E
:103360008D831F8A188E198E1A8E808D918DA0E004
:10337000B0E025E0880F991FAA1FBB1F2A95D1F73F
:103380008B8B9C8BAD8BBE8B15C0803201F783E09D
:103390008D83FB01428D538D648D758D4F8B588FBE
:1033A000698F7A8F9E012D5E3F4FC8010E940524D0
:1033B000882369F21C8F0B8F81E08C831E821F8211
:1033C000188619861A861B861C861D861E861F86F1
:1033D000188A198A1A8ADF91CF911F910F91089547
:1033E0002F923F924F925F926F927F928F929F9215
:1033F000AF92BF92CF92DF92EF92FF920F931F9303
:10340000CF93DF93EC015B014A018D81811103C0F1
:103410008FEF9FEFD7C08C8180FFFACF4B885C88FD
:103420006D887E884A855B856C857D85C401A0E0BA
:10343000B0E093018201041B150B260B370B081714
:1034400019072A073B0718F44201841A950A240138
:103450001E0126E0220E311C4114510409F47EC0E5
:103460004A855B856C857D856A0181E0D822ED8186
:103470008A019B0189E036952795179507958A95CE
:10348000D1F78B8D9C8DE23061F4FC01828D938DA0
:10349000A48DB58DBC01CD01600F711F821F931FDC
:1034A0003FC0FC0174807A947022C114D104C9F425
:1034B000711017C0452B462B472B49F48F89988DE7
:1034C000A98DBA8D8E839F83A887B9870AC04E8144
:1034D0005F816885798591010E948123882309F4A1
:1034E00097CFEB8DFC8D8E819F81A885B985029742
:1034F000A109B109058404C0880F991FAA1FBB1F29
:103500000A94D2F74685578560897189840F951F83
:10351000A61FB71FBC01CD01670D711D811D911D37
:1035200020E032E02C193D0932012415350508F45C
:1035300039012C8126FD04C06114F2E07F0679F583
:103540000091090210910A0220910B0230910C02A5
:10355000601771078207930719F421C0C40132C0B4
:10356000750183019601AB01BC018091881990918E
:1035700089190E944522882309F44ACFA60CB71C5A
:103580008A859B85AC85BD85860D971DA11DB11DC6
:103590008A879B87AC87BD87461857085DCF40E078
:1035A0000E942223882309F433CFF601E657F64E12
:1035B000D501CF01860D971DE817F907F9F2219182
:1035C0002D93FACFDF91CF911F910F91FF90EF9044
:1035D000DF90CF90BF90AF909F908F907F906F9033
:1035E0005F904F903F902F900895FF920F931F93FD
:1035F000CF93DF931F92CDB7DEB7FC012581223038
:1036000018F480E090E033C08C01FC0142855385C2
:103610006485758585E076956795579547958A9574
:10362000D1F7F42FFF70FF2E41E050E0BE016F5F35
:103630007F4FC8010E94F019019719F4898190E029
:1036400002C08FEF9FEF0196E1F2F801828593852A
:10365000A485B5854F96A11DB11D82879387A48748
:10366000B587F0E2FF9EC00111248657964E0F9059
:10367000DF91CF911F910F91FF9008958F929F92AC
:10368000AF92BF92CF92DF92EF92FF920F931F9370
:10369000CF93DF93EC018D81811102C080E077C070
:1036A0000B891C892D893E890417150726073707C2
:1036B000A8F36A017B01823029F4CA86DB86EC8696
:1036C000FD860DC0C114D104E104F10451F41E8241
:1036D0001F82188619861A861B861C861D8681E025
:1036E00056C08A849B84AC84BD84EB8DFC8D25857B
:1036F00030E0275F3F4FB501A401415051096109F6
:103700007109022E04C076956795579547950A94DE
:10371000D2F7D701C6010197A109B10904C0B69536
:10372000A795979587952A95D2F784179507A607A9
:10373000B70720F089288A288B2849F44F89588DAB
:10374000698D7A8D4E835F836887798704C0841B77
:10375000950BA60BB70B4C015D018E010A5F1F4F45
:1037600081149104A104B10409F4A7CF4E815F81B3
:103770006885798598018B8D9C8D0E94812391E0CD
:10378000891A9108A108B1088111EACF87CFDF918A
:10379000CF911F910F91FF90EF90DF90CF90BF904E
:1037A000AF909F908F9008950F931F93CF93DF93C7
:1037B000EC018D818823C9F18C8187FF30C061E0E5
:1037C000CE010E944D198C01892B79F18D818230B7
:1037D00048F48B899C89AD89BE89F801848F958FC7
:1037E000A68FB78F8F89988DA98DBA8DF801938F89
:1037F000828FB58BA48BE0918119F091821930975B
:1038000059F0B8016A5E7F4FC80148961995F801D2
:10381000808D918D938B828B8C818F778C83DF91C0
:10382000CF911F910F910C94E72280E0DF91CF910F
:103830001F910F910895CF93DF93EC010E94D41B49
:10384000882311F01D8281E0DF91CF9108954F927E
:103850005F926F927F928F929F92AF92BF92EF9200
:10386000FF920F931F93CF93DF9300D01F92CDB79A
:10387000DEB7FC0185818130E9F4848181FF1AC0C3
:1038800083899489A589B68984179507A607B70700
:1038900088F0892B8A2B8B2B09F479C04A015B01B4
:1038A0007F014284538464847584CF010E943E1B4F
:1038B000811102C080E06CC0F701838D948D81146A
:1038C0009104A104B10471F44789508D618D728D0A
:1038D0000E942326882371F3F701178A108E118E18
:1038E000128E3AC0F70146815781608571859E012D
:1038F0002F5F3F4F0E9481238823E1F249815A8143
:103900006B817C81F701838D948DFC0127892031A7
:1039100029F008EF1FEF2FEF3FE004C008EF1FEF83
:1039200020E030E04017510762077307A8F40E94B7
:103930002326882309F4BECFF7014681578160858D
:1039400071850FEF1FEF2FEF3FE0838D948D0E9465
:103950006E24882309F4AECFF701838A948AA58A5E
:10396000B68A848180688483C7010E94D41B88231F
:1039700009F4A0CFB501A401481459046A047B04DA
:1039800010F4B301A201C7010E943E1B01C081E0F7
:103990000F900F900F900F90DF91CF911F910F918B
:1039A000FF90EF90BF90AF909F908F907F906F901F
:1039B0005F904F9008951F93CF93DF93EC0180E2C7
:1039C000689FF00111249F012657364ED9011B969E
:1039D0009C91917129F0842F827411F080E05BC07A
:1039E000142F6A8B8091090290910A02A0910B0218
:1039F000B0910C028E879F87A88BB98BE657F64E45
:103A00004489558960E070E0BA01552744274F8BFF
:103A1000588F698F7A8F828D938DA0E0B0E0482B0C
:103A2000592B6A2B7B2B4F8B588F698F7A8FD9013B
:103A30001B968C91887151F4848D958DA68DB78DD0
:103A40008B8B9C8BAD8BBE8B81E00DC0803131F6B2
:103A50009E012D5E3F4F8B8D9C8D0E9405248823F7
:103A600009F4BCCF84E08D83812F8F708C831E82FC
:103A70001F82188619861A861B861C861D8616FFCD
:103A800009C040E050E0BA01CE01DF91CF911F9113
:103A90000C94271C81E0DF91CF911F910895CF9264
:103AA000DF92EF92FF920F931F93CF93DF93CDB7E7
:103AB000DEB72C970FB6F894DEBF0FBECDBFFC016A
:103AC00035813111C2C0D22E8B017C01BE016F5FE6
:103AD0007F4FCA010E946619882309F4B6C0F80115
:103AE000838D948DF701948F838FF801168217824E
:103AF00010861186128613861486158630E0F8012A
:103B000082859385A485B58543895489658976899D
:103B100084179507A607B70708F041C025E0B695BA
:103B2000A795979587952A95D1F7F82FFF70CF2EF7
:103B3000C8013C870E94F51A3C85009709F485C0AE
:103B4000FC012081222309F484C0253E99F04BE03A
:103B500050E0BC01CE0101963C870E9415383C859F
:103B6000892B69F68D2D8073803309F46EC04D2D3D
:103B70006C2D67C031116BC0F701C28A40910902F8
:103B800050910A0260910B0270910C024687578790
:103B9000608B718BFC01808131E08111B0CF8D2D64
:103BA0008271823109F051C0332341F061E0C701D5
:103BB0000E944D198C01892B79F447C0F801858149
:103BC000823009F442C0C8010E94ED188823E9F14F
:103BD000F701128A0AE819E180E2F80111928A9548
:103BE000E9F78BE0FE013196D80101900D928A959C
:103BF000E1F7E0918119F0918219309739F0B8011D
:103C0000625F7F4FC8014096199509C081E298E232
:103C1000F801918B808B80E098E097878687F80188
:103C200080899189938B828B918F808F86859785F0
:103C3000978B868B0E94E722882339F04D2DF70160
:103C40006289C7010E94DB1C09C080E007C031E027
:103C500056CF332309F490CF31E0A1CF2C960FB685
:103C6000F894DEBF0FBECDBFDF91CF911F910F91B2
:103C7000FF90EF90DF90CF9008952F923F924F9258
:103C80005F926F927F928F929F92AF92BF92CF92EC
:103C9000DF92EF92FF920F931F93CF93DF9300D0A9
:103CA0001F92CDB7DEB78C016B013A01DC0115968E
:103CB0008C9115978130C9F414968C9181FF15C0B1
:103CC00082FF1DC0F8014389548965897689828500
:103CD0009385A485B58584179507A607B70779F05E
:103CE000C8010E943E1B81110AC081E090E0D8010A
:103CF00013969C938E93129780E090E048C1430105
:103D000084C0D8015B968D919C915C97FC01548096
:103D10002FEF250D1A012B0139E056944794379463
:103D200027943A95D1F7522E52207A01F1E0FF22E2
:103D3000552009F476C080E092E08E199F09540165
:103D40008815990508F45C01D8015B962D913C918A
:103D50005C9716968D919D910D90BC91A02D029728
:103D6000A109B109F901058404C0880F991FAA1F90
:103D7000BB1F0A94D2F74685578560897189840FE5
:103D8000951FA61FB71F9C01AD01250D311D411DBB
:103D9000511D19012A01A11432E0B30609F088C0AF
:103DA0008091090290910A02A0910B02B0910C023D
:103DB00082159305A405B50559F48FEF9FEFDC013B
:103DC0008093090290930A02A0930B02B0930C0215
:103DD0009601B201A10180918819909189190E94E0
:103DE0009922882309F481CF9EEFD91A8A189B085B
:103DF000F80182859385A485B5858A0D9B1DA11D3B
:103E0000B11D82879387A487B587D8011A964D91F3
:103E10005D916D917C911D978114910409F071CF92
:103E200087C0E114F10409F086CF16964D915D919B
:103E30006D917C911997411551056105710559F4F2
:103E400057968D919D910D90BC91A02D0097A10545
:103E5000B10541F521C09E012F5F3F4F0E94812394
:103E6000882309F44ACF89819A81AB81BC81F8010A
:103E7000238D348DF9012789203129F048EF5FEF38
:103E80006FEF7FE004C048EF5FEF60E070E0841701
:103E90009507A607B70730F0C8010E94C618811120
:103EA0004ACF23CFF80186839783A087B18743CF7A
:103EB000E114F10429F5D8011A964D915D916D91A7
:103EC0007C911D9753968D919D910D90BC91A02D45
:103ED000481759076A077B0798F00E94E722882352
:103EE00009F403CF2092090230920A0240920B0299
:103EF00050920C028091871981608093871908C0C5
:103F000041E0C201B1010E942223882309F4EDCED1
:103F1000D601F701E657F64ECF018A0D9B1DE81733
:103F2000F90719F02D912193FACFCA0CDB1C5ECF53
:103F30005396CD90DD90ED90FC90569714968C9111
:103F4000C416D506E606F70640F4F801438B548BF9
:103F5000658B768B806884830DC0209181193091A8
:103F60008219232B39F06114710421F08068D80183
:103F700014968C93F801848183FD02C0C30107C0AD
:103F8000C8010E94D41B882309F4AFCEF7CF0F904D
:103F90000F900F900F90DF91CF911F910F91FF9095
:103FA000EF90DF90CF90BF90AF909F908F907F90D9
:103FB0006F905F904F903F902F900895CF93DF9335
:103FC0001F92CDB7DEB7698341E050E0BE016F5F5D
:103FD0007F4F0E943D1E0F90DF91CF9108958EBDBF
:103FE0000DB407FEFDCF08958FEF0E94EF1F8EB531
:103FF000089561E0FC0184810C94261060E0FC01CE
:1040000084810C942610CF93DF93FC018681882352
:10401000D1F08FEF8EBD4FEF878190859C012F5F90
:104020003F4F308727838130924028F40DB407FE3C
:10403000FDCF4EBDF1CF0DB407FEFDCFEF01CF0197
:104040000E94F91F1E82DF91CF910895673028F0FA
:1040500026E1FC01258380E008958DB560FD02C056
:10406000663011F48E7F01C081608DBD8CB58C7F70
:104070008CBD9CB562FD02C080E001C082E0669507
:104080006170692B862B8CBD81E008950F931F937F
:10409000CF93DF93EB010E94BA0E8B010E94F41FB5
:1040A0008F3F49F00E94BA0E601B710B6C177D07A1
:1040B000A8F380E001C081E0DF91CF911F910F91C3
:1040C0000895CF92DF92FF920F931F93CF93DF93C8
:1040D00000D01F92CDB7DEB76C01F62E29833A834C
:1040E0004B835C830E940320C6010E94FE1F6CE28A
:1040F00071E0C6010E9446208F2D80640E94EF1F50
:1041000008E110E05C814B813A812981DA01C90123
:10411000002E04C0B695A795979587950A94D2F777
:1041200029833A834B835C830E94EF1F0850110957
:1041300029813A814B815C81083F8FEF180731F765
:10414000FF2029F0E8E0FE1204C087E803C085E9FB
:1041500001C08FEF0E94EF1F10E00E94F41FF601D4
:10416000828787FF04C01F3F11F01F5FF6CF0F90BB
:104170000F900F900F90DF91CF911F910F91FF90B3
:10418000DF90CF9008958F929F92AF92BF92EF925F
:10419000FF920F931F93CF93DF93EC01E62E1B86C4
:1041A00019861E821D824C830E94BA0E8B0161E02B
:1041B0008C810E94EA0FCE010E94F91F60E082E329
:1041C0000E94EA0F61E083E30E94EA0F61E084E36A
:1041D0000E94EA0F61E085E30E94EA0F61E085E357
:1041E0000E94261083E58CBD8DB58E7F8DBD2AE0A3
:1041F000F22E8FEF0E94EF1FFA94F110FACFCE014A
:104200000E94FE1F20E030E0A90160E0CE010E9484
:104210006120F82E8A8781E0F81649F00E94BA0ED4
:10422000601B710B613D774068F381E04CC02AEA66
:1042300031E040E050E068E0CE010E94612082FF62
:1042400002C0FB860EC094E0F92E0E94F41F8A87FC
:10425000FA94F110FACF8A3A11F082E034C082E089
:104260008B878B85823021F0812C912C540105C0E5
:10427000812C912CA12C80E4B82E20E030E0A90103
:1042800067E3CE010E946120A501940169E2CE019D
:104290000E9461208A87882349F00E94BA0E601B21
:1042A000710B613D774048F388E00DC08B8582300B
:1042B00039F520E030E0A9016AE3CE010E946120D7
:1042C000882389F086E08D83CE010E94F91F80E06B
:1042D000DF91CF911F910F91FF90EF90BF90AF9022
:1042E0009F908F9008950E94F41F807C803C11F471
:1042F00083E08B870E94F41F0E94F41F0E94F41F2A
:10430000CE010E94F91F6E2DCE01DF91CF911F913A
:104310000F91FF90EF90BF90AF909F908F900C9473
:1043200026200F931F93CF93DF93EC010E94BA0EC8
:104330008B010E94F41F8A878F3F49F40E94BA0EB6
:10434000601B710B6D327140A0F38FE003C08E3F94
:1043500039F08DE08D83CE010E94F91F80E001C00D
:1043600081E0DF91CF911F910F910895CF92DF925D
:10437000EF92FF920F931F93CF93DF93EC016901AC
:10438000C801820F931F8130924008F06FC08E8168
:10439000882371F088819981AA81BB8148175907C8
:1043A0006A077B0729F48F819885C816D90618F506
:1043B000488359836A837B838B85833039F089E016
:1043C000440F551F661F771F8A95D1F79A01AB01DD
:1043D00061E1CE010E946120882319F083E08D8382
:1043E00045C0CE010E949121882309F43FC0188660
:1043F0001F8281E08E838FEF8EBD2FEF8F81988596
:104400008C159D0550F40DB407FEFDCF2EBD8F8198
:104410009885019698878F83F1CFC8010197F7019E
:104420004FEF9F012E193F092817390738F40DB4B3
:1044300007FEFDCF2EB521934EBDF3CF0DB407FE81
:10444000FDCF2EB5F701E80FF91F20838F819885E6
:10445000080F191F18870F838985882319F0011504
:10446000124048F0CE010E94032005C0CE010E94F8
:10447000F91F80E001C081E0DF91CF911F910F9182
:10448000FF90EF90DF90CF900895EF92FF920F93FF
:104490001F930115110519F00E94B62101C081E09A
:1044A0001F910F91FF90EF900895EF92FF920F935D
:1044B0001F93790100E012E020E030E00E94B62175
:1044C0001F910F91FF90EF900895CF93DF93EC0130
:1044D0006EBD20E030E00DB407FEFDCFFA01E20F23
:1044E000F31F80818EBD0DB407FEFDCF81818EBD8F
:1044F0002E5F3F4F211582E0380769F70DB407FEA4
:10450000FDCF8FEF0E94EF1F8FEF0E94EF1F0E94E1
:10451000F41F8A87982F9F71953039F081E18D8340
:10452000CE010E94F91F80E001C081E0DF91CF91B0
:1045300008950F931F93CF93DF93EC0189014115E9
:1045400051056105710511F482E132C08B8583301C
:1045500039F089E0440F551F661F771F8A95D1F700
:104560009A01AB0168E1CE010E946120882311F01D
:1045700084E01EC0A8016EEFCE010E946522882350
:10458000C1F068E572E0CE010E944620811102C0B0
:1045900085E10EC020E030E0A9016DE0CE010E946F
:1045A0006120811104C00E94F41F882339F084E146
:1045B0008D83CE010E94F91F80E004C0CE010E94CD
:1045C000F91F81E0DF91CF911F910F9108958091A4
:1045D00087198823A9F14091090250910A0260913C
:1045E0000B0270910C022AE839E1809188199091B0
:1045F00089190E949922811102C080E0089540919A
:10460000831950918419609185197091861941150B
:1046100051056105710591F02AE839E18091881909
:10462000909189190E949922882339F31092831955
:104630001092841910928519109286191092871978
:1046400081E00895CF92DF92EF92FF92CF936B01BA
:104650007C01C42F8091090290910A02A0910B0263
:10466000B0910C028C159D05AE05BF05D1F00E94DE
:10467000E722811102C080E01AC02AE839E1B701BF
:10468000A60180918819909189190E94552288234A
:1046900091F3C0920902D0920A02E0920B02F092CA
:1046A0000C0280918719C82BC093871981E0CF91A4
:1046B000FF90EF90DF90CF900895CF92DF92EF922E
:1046C000FF926B017C010E94E7228823A9F0EAE8AF
:1046D000F9E111928BE1EA38F807D9F7C0920902A3
:1046E000D0920A02E0920B02F0920C02809187199C
:1046F00081608093871981E0FF90EF90DF90CF90E9
:1047000008958F929F92AF92BF92CF92DF92EF92D5
:10471000FF920F931F93CF93DF93FC0181859285C6
:10472000A385B4850196A11DB11D84179507A60721
:10473000B70710F480E05CC083899489A589B689A5
:10474000C789C03129F4852E962EA72EBB2409C017
:104750004A015B01C7E0B694A79497948794CA95E1
:10476000D1F7E9016A017B018F01BC01CD01680D20
:10477000791D8A1D9B1D8090090290900A02A090CD
:104780000B02B0900C02681579058A059B0599F417
:10479000F80187898031A9F4B701A601552766275A
:1047A0007727440F551FFA01E657F64E8081918115
:1047B000A0E0B0E018C040E00E9422238111E8CFC1
:1047C000B9CFB701A6014F77552766277727440F42
:1047D000551F440F551FFA01E657F64E808191810F
:1047E000A281B381BF7088839983AA83BB8381E050
:1047F000DF91CF911F910F91FF90EF90DF90CF90BD
:10480000BF90AF909F908F9008954F925F926F925C
:104810007F92AF92BF92CF92DF92EF92FF920F936F
:104820001F93CF93DF9300D01F92CDB7DEB78C01DB
:1048300049835A836B837C835901C12CD12C760127
:10484000412C82E0582E612C712C49815A816B8158
:104850007C819E012F5F3F4FC8010E9481238823E6
:1048600051F1D301C201F801058404C0880F991FDA
:10487000AA1FBB1F0A94D2F7C80ED91EEA1EFB1E40
:1048800049815A816B817C818789803129F088EF49
:104890009FEFAFEFBFE004C088EF9FEFA0E0B0E074
:1048A000481759076A077B0780F2F501C082D18259
:1048B000E282F38281E00F900F900F900F90DF91D2
:1048C000CF911F910F91FF90EF90DF90CF90BF900D
:1048D000AF907F906F905F904F9008954F925F924E
:1048E0006F927F928F929F92AF92BF92CF92DF9200
:1048F000EF92FF920F931F93CF93DF93EC016A0126
:104900007B0128013901423051056105710510F420
:1049100080E073C089859A85AB85BC850196A11D11
:10492000B11D84179507A607B70790F38B889C885D
:10493000AD88BE888F89803129F4BB27AF2D9E2D8D
:104940008D2D09C0DB01CA0147E0B695A795979563
:1049500087954A95D1F7880E991EAA1EBB1E809195
:10496000090290910A02A0910B02B0910C028816E4
:104970009906AA06BB0679F48F898031A1F4DD245B
:10498000EE24FF24C601880F991FFC01E657F64E5E
:104990005182408219C040E0C501B4010E94222327
:1049A0008111EACFB5CFE894C7F8DD24EE24FF24C7
:1049B000C601880F991F880F991FFC01E657F64E14
:1049C00040825182628273828091871981608093D4
:1049D00087198A89823080F08D819E81AF81B88568
:1049E000880E991EAA1EBB1E80928319909284196C
:1049F000A0928519B092861981E0DF91CF911F9125
:104A00000F91FF90EF90DF90CF90BF90AF909F906D
:104A10008F907F906F905F904F9008952F923F926C
:104A20004F925F926F927F929F92AF92BF92CF927E
:104A3000DF92EF92FF920F931F93CF93DF93CDB747
:104A4000DEB760970FB6F894DEBF0FBECDBF5C0136
:104A500049875A876B877C871901D901CD90DD90F2
:104A6000ED90FC90C114D104E104F10431F0BFEFEA
:104A7000CB1ADB0AEB0AFB0A10C0FC01C080D18014
:104A8000E280F3809924939409851A852B853C85CF
:104A9000013011052105310509F0912CF5018185C1
:104AA0009285A385B4858C019D010F5F1F4F2F4F09
:104AB0003F4F0D871E872F87388B260137011D82B8
:104AC0001E821F821886F50181859285A385B48593
:104AD0000D811E812F813885081719072A073B078A
:104AE00008F056C02D853E854F855889241535051B
:104AF0004605570550F482E0482E512C612C712C4C
:104B000092E0C92ED12CE12CF12C9E012F5F3F4F5A
:104B1000B301A201C5010E9481238823C9F1498103
:104B20005A816B817C81D301C2010196A11DB11D07
:104B3000452B462B472B19F06C017D010FC0AC01B2
:104B4000BD014C195D096E097F0909851A852B8500
:104B50003C85401751076207730779F02D813E812C
:104B60004F8158852F5F3F4F4F4F5F4F2D833E83BF
:104B70004F8358872C013D01A6CF0FEF1FEF2FEF7A
:104B80003FE0B301A201C5010E946E24811118C04B
:104B900080E041C0D301C2010197A109B1098D8311
:104BA0009E83AF83B88793018201AC01BD01C5012B
:104BB0000E946E24882361F34D805E806F8078842C
:104BC000C414D504E604F70428F3D1014D915D9196
:104BD0006D917C91411551056105710599F4F101C3
:104BE000C082D182E282F3829920A1F0FFEFCF1A36
:104BF000DF0AEF0AFF0AD501CD92DD92ED92FC9219
:104C0000139708C097018601C5010E946E24811187
:104C1000E6CFBECF81E060960FB6F894DEBF0FBE40
:104C2000CDBFDF91CF911F910F91FF90EF90DF905B
:104C3000CF90BF90AF909F907F906F905F904F907C
:104C40003F902F900895AF92BF92CF92DF92EF9254
:104C5000FF920F931F93CF93DF9300D01F92CDB796
:104C6000DEB75C016A017B0182E090E0A0E0B0E089
:104C7000F50180839183A283B3839E012F5F3F4F11
:104C8000B701A601C5010E948123882311F100E02C
:104C900010E09801B701A601C5010E946E24882387
:104CA000C1F0C980DA80EB80FC80F5018789803112
:104CB00029F088EF9FEFAFEFBFE004C088EF9FEFD0
:104CC000A0E0B0E0C816D906EA06FB06B0F281E023
:104CD00001C080E00F900F900F900F90DF91CF9167
:104CE0001F910F91FF90EF90DF90CF90BF90AF900A
:104CF00008958F929F92AF92BF92CF92DF92EF92E0
:104D0000FF920F931F93CF93DF93EC01142F7093B7
:104D1000891960938819442369F1453010F080E0C7
:104D2000F2C040E060E070E0CB010E9422238823C3
:104D3000B1F320E1129FA00111244658564EFA010A
:104D4000E254FE4F80818F7751F73C9680819181AC
:104D5000A281B38184369105A105B10500F3349792
:104D6000C080D180E280F380C114D104E104F10459
:104D700021F4D5CFC12CD12C760140E0C701B6017A
:104D80000E942223882359F28091951990919619B7
:104D90008115924021F690919A19992309F4BFCF79
:104DA0002091981930919919232B09F4B8CF80914B
:104DB0009719882309F4B3CF9A8B8C831D8690E0D2
:104DC00061E070E02D85E22FAB01022E02C0440F9E
:104DD000551F0A94E2F78417950731F031E0320F3E
:104DE0003D87283078F39BCF2091A0193091A119ED
:104DF0002115310519F040E050E008C02091AE19AE
:104E00003091AF194091B0195091B1192D833E8363
:104E10004F835887809198199091991946015701AD
:104E2000880E991EA11CB11C8B8A9C8AAD8ABE8AF1
:104E300000919B1910919C19198F088FA0919A19B4
:104E4000B0E00E94583B860E971EA81EB91E8A8E9F
:104E50009B8EAC8EBD8E85E0000F111F8A95E1F709
:104E600001501E4F012F11270695800E911EA11C87
:104E7000B11C8E869F86A88AB98A20919D1930918F
:104E80009E192115310521F0A90160E070E008C0EC
:104E90004091AA195091AB196091AC197091AD195C
:104EA000D701C60188199909AA09BB09840F951F62
:104EB000A61FB71F04C0B695A79597958795EA9545
:104EC000D2F789879A87AB87BC87853F2FE0920707
:104ED000A105B10510F48CE014C0853F9F4FA105DA
:104EE000B10510F480E10DC08091B6199091B71909
:104EF000A091B819B091B9198A8F9B8FAC8FBD8FD3
:104F000080E28F8B81E0DF91CF911F910F91FF9015
:104F1000EF90DF90CF90BF90AF909F908F900895CB
:104F20002F923F924F925F926F927F928F929F92B9
:104F3000AF92BF92CF92DF92EF92FF920F931F93A7
:104F4000CF93DF9300D0CDB7DEB74C017B836A836C
:104F50006A01590117019801241B350B37FF03C063
:104F6000319521953109C5014A815B81841B950BDF
:104F700097FF03C091958195910951E0598382175C
:104F8000930714F019820BC09A2D8B2D5801092F0D
:104F9000182F9A818B81DB82CA82C92ED82E8A81F2
:104FA0009B81A816B9065CF49C2D8D2D6801092FF4
:104FB000182F9A818B81BB82AA82A92EB82E250137
:104FC000AA81BB814A1A5B0A38016C187D0877FEFA
:104FD00003C0719461947108720157FE03C0BFEF62
:104FE000EB1AFB0AF594E794C016D1061CF00FEFFC
:104FF0001FEF1FC001E010E01CC0D401ED91FC9137
:10500000B9810084F185E02D9101BB23C1F04A8173
:105010005B81B601C4011995E618F708F7FE04C0D4
:10502000C00ED11EE40CF51CEA81FB813196FB8396
:10503000EA834A815B81A416B506FCF604C0A6018A
:105040006A817B81E7CF0F900F900F90DF91CF9116
:105050001F910F91FF90EF90DF90CF90BF90AF9096
:105060009F908F907F906F905F904F903F902F9088
:1050700008950895DC01ED91FC910480F581E02D07
:1050800019940F931F93DC01ED91FC91008CF18D2D
:10509000E02D19951F910F9108950F931F93DC0137
:1050A000ED91FC91028CF38DE02D19951F910F91DC
:1050B0000895EF92FF920F931F93DC01ED91FC9105
:1050C000048CF58DE02D19951F910F91FF90EF90B5
:1050D00008950895AF92BF92CF92DF92EF92FF9220
:1050E0000F931F93CF93DF9300D01F92CDB7DEB7FE
:1050F0005C016901DC01ED91FC910680F781E02DF6
:105100004B835C8369837A831995D501ED91FC917A
:105110004B815C81C40ED51EB1E0CB1AD10800884A
:10512000F189E02D7801860169817A819B01C501B1
:105130001995D501ED91FC910288F389E02DC50107
:105140000F900F900F900F90DF91CF911F910F91C3
:10515000FF90EF90DF90CF90BF90AF901994AF92F7
:10516000BF92CF92DF92EF92FF920F931F93CF9354
:10517000DF9300D01F92CDB7DEB75C016901DC017F
:10518000ED91FC910680F781E02D4B835C83698370
:105190007A831995D501ED91FC9169817A819B0102
:1051A0002C0D3D1D215031090088F189E02D780139
:1051B0004B815C818A01C5011995D501ED91FC9166
:1051C0000288F389E02DC5010F900F900F900F908A
:1051D000DF91CF911F910F91FF90EF90DF90CF90D3
:1051E000BF90AF9019944F925F926F927F928F927F
:1051F0009F92AF92BF92CF92DF92EF92FF920F9366
:105200001F93CF93DF931F921F92CDB7DEB76C0130
:105210005A0139014801DC01ED91FC910680F781CA
:10522000E02D69837A8319956981462E7A81572EFC
:10523000640C751CD601ED91FC91461457046CF476
:105240000484F585E02D87019401A501B201C60112
:105250001995BFEF4B1A5B0AEDCF0288F389E02D59
:10526000C6010F900F90DF91CF911F910F91FF908A
:10527000EF90DF90CF90BF90AF909F908F907F90F6
:105280006F905F904F901994EF92FF920F931F933E
:10529000DC01ED91FC9111971A960D911C911B97D1
:1052A00018962D913C911997048CF58DE02D7B017A
:1052B00040E050E060E070E019951F910F91FF9081
:1052C000EF900895CF92DF92EF92FF920F931F938A
:1052D000CF93DF9300D000D0CDB7DEB76C01DC01F7
:1052E000ED91FC916217730789F4041715072CF4EC
:1052F000942F852FA801092F182F041B150B980137
:105300002F5F3F4F008CF18DE02D12C040175107E9
:1053100009F5261737072CF4962F872FB901292F67
:10532000382F261B370B2F5F3F4F028CF38DE02D5C
:105330008701C601199526960FB6F894DEBF0FBEF9
:10534000CDBFDF91CF911F910F91FF90EF90DF9034
:10535000CF9008950680F781E02D2D833E834B8307
:105360005C8369837A831995D601ED91FC9100885D
:10537000F189E02D2D813E814B815C8169817A81AB
:10538000C6011995D601ED91FC910288F389E02DB3
:10539000C60126960FB6F894DEBF0FBECDBFDF91D3
:1053A000CF911F910F91FF90EF90DF90CF901994C4
:1053B0006F927F928F929F92AF92BF92CF92DF9225
:1053C000EF92FF920F931F93CF93DF93EC014B016A
:1053D0005A0169013801E881F9810680F781E02DE1
:1053E0001995E881F9810684F785E02D87019601FA
:1053F000A501B401CE011995E881F981A501460DF9
:10540000571D415051090684F785E02D9601B401DE
:10541000CE011995E881F9810484F585E02D930189
:10542000A501B401CE011995E881F981C80CD91CF8
:10543000B601615071090484F585E02D9301A50141
:10544000CE011995E881F9810288F389E02DCE011A
:10545000DF91CF911F910F91FF90EF90DF90CF9050
:10546000BF90AF909F908F907F906F901994089508
:10547000FC016370658B8481958126813781613061
:1054800039F0633029F09187808733872287089528
:1054900031872087938782870895FC0113821282C7
:1054A0008FE093E091838083758364835783468381
:1054B0007187608753874287158A158614861786F9
:1054C000168681E0848B2FEF3FEF338B228B318B5D
:1054D000208B868B178A118E108E08952F923F9203
:1054E0004F925F926F927F928F929F92AF92BF92F4
:1054F000CF92DF92EF92FF920F931F93CF93DF93A0
:10550000CDB7DEB728970FB6F894DEBF0FBECDBF7C
:105510005C013B014A0138872F83FC82EB8281E0EA
:1055200090E02C01421A530AC90191958195910985
:105530009C01220F331F3A832983170133E0230E86
:10554000311CEE24E394F12C802F81708D83027046
:105550000E83C7010197EF81F8858E179F070CF026
:1055600078C057FC0CC0AF81B8851197B887AF835E
:10557000E981FA813296FA83E9834E0E5F1EC701F4
:10558000880F991F0196480E591EFD81FF2359F17E
:10559000D501ED91FC912F813885220F331F2F5FAC
:1055A0003F4F8B819C81280F391F0484F585E02DA6
:1055B0008601A401AF81B8854A1B5B0BB701660D5C
:1055C000771DC5011995D501ED91FC910484F585F0
:1055D000E02D9101A4014E195F096F817885660D58
:1055E000771DC5011995BE81BB2361F1D501ED91F0
:1055F000FC912F813885220F331F2F5F3F4F8B8106
:105600009C81280F391F0484F585E02D8601A401B3
:10561000AF81B8854A1B5B0BB3016E197F09C501C9
:105620001995D501ED91FC910484F585E02D91014A
:10563000A4014E195F09B3018F819885681B790B0E
:10564000C50119959FEFE91AF90AA2E02A0E311C4B
:1056500080CF28960FB6F894DEBF0FBECDBFDF9186
:10566000CF911F910F91FF90EF90DF90CF90BF905F
:10567000AF909F908F907F906F905F904F903F90F2
:105680002F9008956F927F928F929F92AF92BF92C8
:10569000CF92DF92EF92FF920F931F93CF93DF93FE
:1056A000EC014B013A0159016801E881F98106805A
:1056B000F781E02D1995E881F9819501220F331FBB
:1056C0002F5F3F4FA3014A195B090484F585E02D44
:1056D000B401CE011995E12CF12C03E09501A30151
:1056E000B401CE010E946E2AE881F9810288F38913
:1056F000E02DCE01DF91CF911F910F91FF90EF90A0
:10570000DF90CF90BF90AF909F908F907F906F90E1
:1057100019942F923F924F925F926F927F928F9245
:105720009F92AF92BF92CF92DF92EF92FF920F9330
:105730001F93CF93DF93CDB7DEB76C970FB6F89476
:10574000DEBF0FBECDBF9C8F8B8F5B011A011F8305
:105750000E833701C982DC0158964D915C915997AF
:105760004115510509F0E5C018968D919C91199746
:10577000681779070CF0CAC11A968D919C911B97F6
:10578000281639060CF0C2C18C2C912CFB0136E096
:10579000C39EE00DF11D1124FB87EA871E161F062C
:1057A0000CF0B4C1C40133E0880F991F3A95E1F7BA
:1057B0009D878C87820D931D181619060CF0A6C1C3
:1057C00057968C91811103C0203B08F02F5FAB8D61
:1057D000BC8DED91FC9111970680F781E02DCD01F4
:1057E0002A8F19952A8DB5E02B9F90011124F50180
:1057F0003596FF87EE872501BB82AA82A9014A1947
:105800005B09598B488BC10108969B8B8A8BE88971
:10581000F989E40DF51DE65DFC4F949198873D8272
:105820002C826101A885A0FF13C0AB8DBC8DED91CA
:10583000FC91B981B13031F40084F185E02D2E81E5
:105840003F8116C00284F385E02DEE80FF801AC0F0
:10585000EE81FF816E167F06F1F0AB8DBC8DED9170
:10586000FC91B981B13051F40084F185E02D9301B0
:10587000A601B2018B8D9C8D19950DC00284F38514
:10588000E02D7301840194014C815D816A817B81EB
:105890008B8D9C8D1995E885E695E8872C813D8157
:1058A000280D391D3D832C833FEFC31AD30A4A8943
:1058B0005B89C416D50609F0B5CF8A819B81880D16
:1058C000991D9B838A839FEF491A590AAE85BF852C
:1058D0004A165B0609F09BCFEE81FF816E167F06AC
:1058E00009F4F2C0EB8DFC8DA081B181F981F1301A
:1058F00079F4B5016B5F7F4F1C96ED91FC911D977C
:10590000830128E030E0A1018B8D9C8D1995DCC0CE
:105910006A857B85681979091A96ED91FC911B9728
:1059200073010C851D859401A1018B8D9C8D1995AA
:10593000CBC0FA0134969491329765917491291BEA
:10594000CB01B7E02B9F800D911D1124FA01259109
:1059500034913B8B2A8BFC01459154915B834A83A4
:10596000FC013296C490319654915C873296149122
:105970003196D4908981823058F0612E012E000C2E
:105980007708AD2D0D2C000CBB0BB987A88704C080
:1059900019861886612C712CAB8DBC8DED91FC9114
:1059A00011970680F781E02DCD011995B9818B2ED5
:1059B000912C689CC001699C900D789C900D1124DD
:1059C000FC01EA0DFB1DF98BE88B1C82712C612C0C
:1059D000E12F110FFF0B95012E0F3F1F3B872A87E9
:1059E000AC0CB11CA5014E0F5F1F5F8B4E8BC1012C
:1059F0008D0D911DD7FC9A95998F888F4C856416D3
:105A000008F062C0862D90E048855985480F591FDF
:105A1000489D9001499D300D589D300D1124D901AC
:105A2000A20DB31DBF87AE87AA84BB84488859885E
:105A3000DC80BA85DB1AE88DF98DE80FF91FFD8B44
:105A4000EC8B8D2D8A0D2E893F89A216B306B9F1F4
:105A5000877061F48A819B810196EA89FB89AA811A
:105A6000BB81EA0FFB1F74909B838A8377FE20C063
:105A7000AB8DBC8DED91FC91B981B13061F40084A6
:105A8000F185E02D2E813F814C895D89B5018B8D9B
:105A90009C8D19950DC00284F385E02DEE80FF806A
:105AA000840194014E855F85B2018B8D9C8D199583
:105AB000770C480C591CEFEFAE1ABE0AC2CF3C81DE
:105AC0003C0D3C8363949ACFAB8DBC8DED91FC91E2
:105AD00011970288F389E02DCD016C960FB6F894EA
